:100000000C943A000C9457000C9457000C94570031
:100010000C94F9000C94C8000C9457000C945700F1
:100020000C9457000C9457000C9457000C94B90092
:100030000C9457000C9457000C9484000C945700B7
:100040000C9457000C9457000C94D4070C94570050
:100050000C9457000C9457000C9457000C945700C4
:100060000C9457000C9457006364696E6F7073753D
:1000700078585B0011241FBECFEFD8E0DEBFCDBFA4
:1000800012E0A0E0B1E0E6E3F6E202C005900D92D6
:10009000AC37B107D9F712E0ACE7B2E001C01D926E
:1000A000AF3AB107E1F70E949C010C9419130C942C
:1000B0000000E1E8F0E0808188608083EFE6F0E016
:1000C00080818260808384E294EF909389008093A2
:1000D000880085B5886085BDEEE6F0E080818260AD
:1000E00080830895109299021092980210929302C0
:1000F0001092A20288EC87BD85B5826085BD809193
:10010000A2028823E1F308951F920F920FB60F9277
:1001100011242F938F939F9380919302882329F426
:100120002C9A81E08093930203C02C981092930242
:1001300080919802909199020196909399028093F0
:1001400098028091980290919902885B9B4049F4B3
:1001500085B515BC85B515BC85B515BC81E080930A
:10016000A2029F918F912F910F900FBE0F901F9021
:1001700018951F920F920FB60F9211248F9381E062
:1001800080939D028F910F900FBE0F901F90189536
:100190001F920F920FB60F9211248F9389B1809303
:1001A000A6028091A60282FD0BC080917F02882367
:1001B00019F481E080939B0281E08093890202C060
:1001C000109289028091A60283FD0BC080917F026C
:1001D000813019F482E080939B0281E080937C025D
:1001E00002C010927C028F910F900FBE0F901F9053
:1001F00018951F920F920FB60F9211242F933F93D1
:100200008F939F9386B180938A0280918A0281FFA7
:1002100004C081E080938D0202C010928D02809113
:100220008A0285FF04C081E08093A70202C0109279
:10023000A70280917D02882391F480918D0288230A
:1002400011F081E049C08091A702882309F455C0CC
:1002500080918D02882309F050C082E049C08091CE
:100260007D028130A9F48091A702882339F480911E
:100270008D02882319F410929A023CC08091A70243
:100280008823D9F180918D028823B9F183E024C0BD
:1002900080917D028230B9F48091A702882331F0E9
:1002A00080918D02882311F083E022C08091A70203
:1002B000882319F580918D028823F9F410929A020F
:1002C00021E030E035C08091A702882341F0809181
:1002D0008D02882321F482E080939A02F1CF8091ED
:1002E000A702882351F480918D02882331F081E0A8
:1002F00080939A022FEF3FEF1BC01092A50220E0DF
:1003000030E080918E0290918F02280F391F309338
:100310008F0220938E0280919A0280937D029F919A
:100320008F913F912F910F900FBE0F901F901895B6
:1003300081E08093A502E5CF2F923F924F925F928A
:100340006F927F928F929F92AF92BF92CF92DF92E5
:10035000EF92FF920F931F93DF93CF93CDB7DEB74A
:1003600060970FB6F894DEBF0FBECDBF0E94200786
:1003700078940E94490784E690E00E94ED11282FAE
:1003800030E0C90101978336910528F430938F023C
:1003900020938E0204C010928F0210928E025A9AFD
:1003A0005B9A89B18093A6028091A60282FF03C066
:1003B0001092890203C081E0809389028091A60295
:1003C00083FF03C010927C0203C081E080937C0213
:1003D0008091680084608093680080916D008460E3
:1003E00080936D0080916D00886080936D000E9405
:1003F0005900259A2D9A2D981092950210928802F4
:100400001092A10210928202249A109293020E94EA
:100410009F0780E060E00E94160780E091E00E9464
:10042000FA0681E060E00E94160780E191E00E94F8
:10043000FA0680E197E220E931E0F9013197F1F71E
:100440000197D9F781E00E94060709E0402E512C60
:100450004C0E5D1E1CE0612E712C6C0E7D1EBCE3EB
:100460002B2EB1E03B2EA9E48A2EA1E09A2E80919A
:10047000A502813009F51092A50260918E0270915B
:100480008F0284E690E00E94F51180918E02909197
:100490008F0297FF04C010928F0210928E028091FB
:1004A0008E0290918F028436910534F083E690E0BD
:1004B00090938F0280938E0281E060E00E94160785
:1004C00080E291E00E94FA0681E064E00E94160753
:1004D00080918E0290918F0200D000D000D0EDB7B5
:1004E000FEB73196ADB7BEB712965C924E92119799
:1004F00025E231E033832283958384830E943D0D7E
:100500006DB77EB76A5F7F4F0FB6F8947EBF0FBEA0
:100510006DBFC2010E94FA0681E066E00E941607E4
:1005200089E291E00E94FA0680919D02882319F1E8
:1005300080E060E00E9416078BE291E00E94FA06DC
:1005400010929D0210929B02109282021092A102C0
:1005500010928802109295022D9880919B028093B0
:100560007F02809181008E7F809381008091810045
:100570008B7F8093810090917F0280919B029817DE
:1005800009F45EC180919B02813079F4109285005C
:10059000109284008091810081608093810080911D
:1005A00081008460809381002D9A80919B0282302B
:1005B00009F042C1809181008E7F809381008091FB
:1005C00081008B7F8093810010929B022D98609117
:1005D00084007091850080E090E00E94980A20E0FD
:1005E00034E244E756E40E940A099B01AC016FE63D
:1005F00072E183E490E40E940A0920E030E040E2E6
:1006000051E40E9410080E94440A70939F02609374
:100610009E0280919E0290919F0200D000D000D057
:10062000EDB7FEB73196ADB7BEB712967C926E921B
:10063000119733822282958384830E943D0D00D0DE
:1006400000D000D0EDB7FEB73196ADB7BEB7129669
:100650007C926E92119720E431E03383228366E925
:1006600072E07583648384EA92E097838683ACE9C1
:10067000B2E0B187A08720E932E0338722870E9469
:10068000610D6DB77EB7645F7F4F0FB6F8947EBF84
:100690000FBE6DBF8CE30E94B9078091960288233C
:1006A00049F18091960200D000D000D0EDB7FEB79E
:1006B00031968E01095F1F4FADB7BEB712961C93DE
:1006C0000E93119793828282848315820E943D0D3E
:1006D000EDB7FEB736960FB6F894FEBF0FBEEDBF6E
:1006E00080E067E00E941607C8010E94FA068C8528
:1006F0000E94B9078091A402882321F48091960278
:10070000882349F18091A40200D000D000D0EDB739
:10071000FEB731968E01095F1F4FADB7BEB7129677
:100720001C930E93119793828282848315820E9478
:100730003D0DEDB7FEB736960FB6F894FEBF0FBE6F
:10074000EDBF80E068E00E941607C8010E94FA062B
:100750008D850E94B90780919C02882341F4809185
:10076000A402882321F480919602882349F1809184
:100770009C0200D000D000D0EDB7FEB731968E01BC
:10078000095F1F4FADB7BEB712961C930E9311971A
:1007900093828282848315820E943D0DEDB7FEB75D
:1007A00036960FB6F894FEBF0FBEEDBF80E069E04D
:1007B0000E941607C8010E94FA068E850E94B9079A
:1007C00080E06AE00E9416078DE491E00E94FA063C
:1007D0008091900200D000D000D0EDB7FEB73196E6
:1007E0008E010F5F1F4FADB7BEB712961C930E93CD
:1007F000119793828282848315820E943D0DEDB70A
:10080000FEB736960FB6F894FEBF0FBEEDBF80E080
:100810006BE00E941607C8010E94FA068F850E94AD
:10082000B9078EE30E94B90780E06CE00E941607CA
:100830008FE491E00E94FA0680919B0280937F02F0
:1008400080919B02813009F0F5C060918400709125
:10085000850000D000D000D00DB71EB70F5F1F4F2E
:10086000ADB7BEB712967C926E921197F8013382A3
:10087000228280E090E00E94980A20E034E244E77F
:1008800056E40E940A0920E030E04AE754E40E945E
:1008900010080E94440AD80115967C936E93149711
:1008A0000E943D0D00D000D000D0EDB7FEB73196CC
:1008B000ADB7BEB712967C926E92119720E431E0EC
:1008C0003383228362E872E07583648381EA92E075
:1008D00097838683A8E8B2E0B187A08725E932E054
:1008E000338722870E94610D809182026DB77EB7A7
:1008F0006A5F7F4F0FB6F8947EBF0FBE6DBFEDB736
:10090000FEB731968E010F5F1F4FADB7BEB712967F
:100910001C930E93119793828282848315820E9486
:100920003D0DEDB7FEB736960FB6F894FEBF0FBE7D
:10093000EDBF80E060E00E941607C8010E94FA0641
:100940008091A10200D000D000D0EDB7FEB7319663
:100950008E01095F1F4FADB7BEB712961C930E9361
:10096000119793828282848315820E943D0DEDB798
:10097000FEB736960FB6F894FEBF0FBEEDBF80E00F
:1009800061E00E941607C8010E94FA068091880261
:1009900000D000D000D0EDB7FEB731968E010B5FCE
:1009A0001F4FADB7BEB712961C930E93119793824B
:1009B0008282848315820E943D0DEDB7FEB7369684
:1009C0000FB6F894FEBF0FBEEDBF80E062E00E945C
:1009D0001607C8010E94FA068091950200D000D047
:1009E00000D0EDB7FEB731968E010D5F1F4FADB74A
:1009F000BEB712961C930E931197938282828483C2
:100A000015820E943D0DEDB7FEB736960FB6F894ED
:100A1000FEBF0FBEEDBF80E063E00E941607C80175
:100A20000E94FA0680E064E00E94160784E591E0E7
:100A30000E94FA0680918702813009F018CD67E0A4
:100A40000E94160781E691E00E94FA0680919402C6
:100A500000D000D000D0EDB7FEB731968E010D5F0B
:100A60001F4FADB7BEB712961C930E93119723E696
:100A700031E033832283848315820E943D0D6DB75C
:100A80007EB76A5F7F4F0FB6F8947EBF0FBE6DBF13
:100A900081E068E00E941607C8010E94FA068DB73F
:100AA0009EB70E970FB6F8949EBF0FBE8DBFEDB7E1
:100AB000FEB7319628EA32E0ADB7BEB712963C9346
:100AC0002E93119767E671E0738362838BE892E05F
:100AD00095838483A1E8B2E0B783A68320EA32E05D
:100AE000318720876DEA72E0738762878CE892E035
:100AF000958784870E94610DE0908B02A09081020F
:100B0000F090A002D090AD0280918C0210929202DF
:100B10001092910280918B02ADB7BEB71E960FB6B0
:100B2000F894BEBF0FBEADBF882309F449C08091C1
:100B30008B0200D000D000D0EDB7FEB731968E0109
:100B40000B5F1F4FADB7BEB712961C930E93119754
:100B500093828282992787FD9095958384830E9452
:100B60003D0DEDB7FEB736960FB6F894FEBF0FBE3B
:100B7000EDBF81E069E00E941607C8010E94FA06F5
:100B80008D81992787FD909582579140C9F04091BA
:100B90009102509192028E2D992787FD9095C097D2
:100BA00024E630E0BC01629FC001639F900D729FFC
:100BB000900D1124840F951F9093920280939102BF
:100BC00080918102882309F446C08091810200D07F
:100BD00000D000D0EDB7FEB731968E010B5F1F4FEE
:100BE000ADB7BEB712961C930E9311979382828273
:100BF000992787FD9095958384830E943D0DEDB7DD
:100C0000FEB736960FB6F894FEBF0FBEEDBF81E07B
:100C10006AE00E941607C8010E94FA068D818D3293
:100C2000D1F080919102909192022A2D332727FDD5
:100C3000309520533040A901F3E0440F551FFA9539
:100C4000E1F7220F331F420F531F480F591F5093D4
:100C50009202409391028091A002882309F442C03D
:100C60008091A00200D000D000D0EDB7FEB7319641
:100C70008E010B5F1F4FADB7BEB712961C930E933C
:100C8000119793828282992787FD9095958384831B
:100C90000E943D0DEDB7FEB736960FB6F894FEBF35
:100CA0000FBEEDBF81E06BE00E941607C8010E94F5
:100CB000FA0640919102509192028F2D992787FD5B
:100CC0009095C0979C0173E0220F331F7A95E1F74E
:100CD000880F991F280F391F240F351F3093920258
:100CE0002093910281E06CE00E9416078DE491E070
:100CF0000E94FA068091AD0200D000D000D0EDB77E
:100D0000FEB731968E01095F1F4FADB7BEB7129681
:100D10001C930E93119793828282992787FD909559
:100D2000958384830E943D0DEDB7FEB736960FB6CE
:100D3000F894FEBF0FBEEDBF81E06DE00E94160784
:100D4000C8010E94FA0620919102309192028D2DE5
:100D5000992787FD9095C097820F931F90939202D9
:100D600080939102109294021092870260919102F6
:100D700070919202E0908E02F0908F0280E090E0FD
:100D80000E94980A20E030E040E251E40E940A0903
:100D90005B016C010027F7FC0095102FC801B7011B
:100DA0000E94E6099B01AC01C601B5010E94B6098B
:100DB00018160CF05CCB0E94720059CB9BB19F704F
:100DC0009BB99BB1807F892B8BB982E083B983B9B2
:100DD000299808951F93182F289A0E94DE06812FC4
:100DE0008295807F0E94DE0680E49FE10197F1F703
:100DF0001F910895CF93DF93EC0102C00E94EA0691
:100E000089918823D9F7DF91CF9108951F93182FE7
:100E100028980E94DE06812F8295807F0E94DE0640
:100E200080E49FE10197F1F71F910895882319F459
:100E3000862F805802C0862F80540E94060708958E
:100E400084B1836084B98AB1806F8AB980E69AEEF2
:100E50000197F1F780E30E94DE0680E29EE40197AD
:100E6000F1F780E30E94DE0680EE91E00197F1F752
:100E700080E30E94DE0680E20E94DE0680E49FE1BD
:100E80000197F1F788E20E9406078FE00E940607AB
:100E9000089588B1826288B98091680082608093E9
:100EA000680080916C00826080936C0080916C007F
:100EB000806280936C0086B180938A0280918A025E
:100EC00081FF04C081E080938D0202C010928D02E8
:100ED00080918A0285FF04C081E08093A70202C04E
:100EE0001092A7028091A702882339F480918D0285
:100EF000882319F410927D0217C08091A7028823DD
:100F000031F480918D02882311F081E00BC0809133
:100F1000A702882331F080918D02882311F482E0AA
:100F200001C083E080937D0280917D0280939A02CC
:100F300010928F0210928E021092A50208951092C4
:100F40008702109294021092800287E690E09093BC
:100F5000C5008093C400E1ECF0E08081886180836B
:100F600086E08093C200239A2B98808180688083DA
:100F70000895982F8091C00085FFFCCF9093C60004
:100F80000895AC0120E030E0FA01E20FF31FE081A8
:100F90008091C00085FFFCCFE093C6002F5F3F4FDC
:100FA0002430310589F708951F920F920FB60F92E2
:100FB00011248F939F93EF93FF939091C6009C33DE
:100FC00041F4109294021092870281E08093800293
:100FD0001EC09E3321F080919402843049F48091A8
:100FE00080028130A1F480938702109280020FC0AA
:100FF00080918002813059F4E0919402F0E0E8554C
:10100000FD4F9083809194028F5F80939402FF91B3
:10101000EF919F918F910F900FBE0F901F90189599
:10102000A0E2B0E0E6E1F8E00C94060D69837A8373
:101030008B839C832D833E834F835887CE010196FB
:10104000BE01675F7F4F0E94350CCE010596BE0141
:101050006F5E7F4F0E94350C9985923088F08989A8
:101060008230C8F0943019F4823051F404C08430D6
:1010700029F4923081F484E791E0C6C0923049F4BB
:1010800020E09A858A89981321E02A87CE01099663
:10109000BBC0823049F420E09A858A89981321E008
:1010A0002A8BCE014196B0C02D843E844F8458884F
:1010B0006D887E888F88988CEE24FF248701AA246F
:1010C000BB24650140E050E060E070E0E0E0F0E06B
:1010D000C10181709070892BE9F0E60CF71C081DA6
:1010E000191D9A01AB012A0D3B1D4C1D5D1D80E0B1
:1010F00090E0A0E0B0E0E614F7040805190520F43C
:1011000081E090E0A0E0B0E0BA01A901480F591FCA
:101110006A1F7B1FAA0CBB1CCC1CDD1C97FE08C0E1
:1011200081E090E0A0E0B0E0A82AB92ACA2ADB2A30
:101130003196E032F10549F0660C771C881C991C49
:101140005694479437942794C3CFFA85EA892B891C
:101150003C898B859C85280F391F2E5F3F4F17C018
:10116000CA0181709070892B61F016950795F794EC
:10117000E79480E090E0A0E0B0E8E82AF92A0A2BA2
:101180001B2B76956795579547952F5F3F4F77FDBA
:10119000E7CF0CC0440F551F661F771F17FD416036
:1011A000EE0CFF1C001F111F21503040403090E01A
:1011B000590790E0690790E4790760F32B8F3C8F23
:1011C000DB01CA018F779070A070B07080349105F8
:1011D000A105B10561F447FD0AC0E114F104010560
:1011E000110529F0405C5F4F6F4F7F4F40781A8E9A
:1011F000FE1711F081E08A8F4D8F5E8F6F8F78A37D
:1012000083E0898FCE0149960E94600BA096E2E1AF
:101210000C94220DA8E1B0E0E0E1F9E00C940E0D91
:1012200069837A838B839C832D833E834F83588786
:10123000B9E0EB2EF12CEC0EFD1ECE010196B701AC
:101240000E94350C8E010F5E1F4FCE010596B8012E
:101250000E94350C2985223008F47EC0398932304D
:1012600010F4B8017CC08A859A8989278A8724303E
:1012700011F0223031F4231709F06EC064E771E0F9
:101280006EC0343039F41D861E861F86188A1C866F
:101290001B8604C0323021F484E08987B7015FC027
:1012A0002B853C858B899C89281B390B3C872B8798
:1012B000ED84FE840F851889AD88BE88CF88D88CD0
:1012C000EA14FB040C051D0540F4EE0CFF1C001F86
:1012D000111F215030403C872B8720E030E040E058
:1012E00050E080E090E0A0E0B0E460E070E0EA145C
:1012F000FB040C051D0540F0282B392B4A2B5B2BDA
:10130000EA18FB080C091D09B695A79597958795CE
:10131000EE0CFF1C001F111F6F5F7F4F6F317105B7
:1013200031F7DA01C9018F779070A070B070803406
:101330009105A105B10561F427FD0AC0E114F1048E
:101340000105110529F0205C3F4F4F4F5F4F20787A
:101350002D873E874F87588BBE01675F7F4FCB013C
:101360000E94600B6896EAE00C942A0DA8E1B0E0B8
:10137000ECEBF9E00C94120D69837A838B839C83E8
:101380002D833E834F83588789E0E82EF12CEC0EA5
:10139000FD1ECE010196B7010E94350C8E010F5E35
:1013A0001F4FCE010596B8010E94350C8985823009
:1013B00040F08989823028F0C701B8010E94AD0C45
:1013C00001C08FEF6896E6E00C942E0DA8E0B0E027
:1013D000ECEEF9E00C940F0D9B01AC0183E08983E6
:1013E000DA01C9018827B7FD83959927AA27BB276A
:1013F000B82E211531054105510519F482E0898384
:101400003AC08823A9F0203080E0380780E0480700
:1014100080E8580729F460E070E080E09FEC30C07D
:10142000EE24FF248701E21AF30A040B150B02C015
:1014300079018A018EE1C82ED12CDC82CB82ED822B
:10144000FE820F831887C801B7010E94110B019714
:101450001816190684F4082E04C0EE0CFF1C001F99
:10146000111F0A94D2F7ED82FE820F831887C81AE3
:10147000D90ADC82CB82BA82CE0101960E94600B2F
:101480002896E9E00C942B0DACE0B0E0EAE4FAE039
:101490000C94160D69837A838B839C83CE0101960D
:1014A000BE016B5F7F4F0E94350C8D81823061F1F0
:1014B000823050F1843021F48E81882351F12EC086
:1014C0002F81388537FD20C06E812F3131051CF00A
:1014D0006623F9F023C08EE190E0821B930B2985EF
:1014E0003A854B855C8504C0569547953795279579
:1014F0008A95D2F76623B1F05095409530952195A5
:101500003F4F4F4F5F4F0EC020E030E040E050E0D3
:1015100009C02FEF3FEF4FEF5FE704C020E030E05E
:1015200040E050E8B901CA012C96E2E00C94320D7B
:10153000A8E0B0E0EEE9FAE00C940E0D7B018C011E
:10154000611571058105910519F482E0898360C0F8
:1015500083E089838EE1C82ED12CDC82CB82ED82A0
:10156000FE820F831887C801B7010E94110BFC018E
:101570003197F7FF3BC0222733272E1B3F0B570124
:101580006801022E04C0D694C794B794A7940A9415
:10159000D2F740E050E060E070E081E090E0A0E051
:1015A000B0E004C0880F991FAA1FBB1F2A95D2F76D
:1015B0000197A109B1098E219F21A023B123009792
:1015C000A105B10521F041E050E060E070E04A295A
:1015D0005B296C297D294D835E836F8378878EE13B
:1015E00090E08E1B9F0B9C838B8312C0309781F001
:1015F0000E2E04C0EE0CFF1C001F111F0A94D2F720
:10160000ED82FE820F831887CE1ADF0ADC82CB823E
:101610001A82CE0101960E94600B2896EAE00C9493
:101620002A0DEF92FF920F931F937B018C0180E0B4
:10163000E81680E0F80681E0080780E0180788F4E3
:101640008FEFE816F1040105110531F028F088E06C
:1016500090E0A0E0B0E017C080E090E0A0E0B0E053
:1016600012C080E0E81680E0F80680E0080781E01C
:10167000180728F088E190E0A0E0B0E004C080E125
:1016800090E0A0E0B0E020E230E040E050E0281B35
:10169000390B4A0B5B0B04C016950795F794E7943A
:1016A0008A95D2F7F701E458FE4F8081281B310953
:1016B00041095109C9011F910F91FF90EF900895C1
:1016C000DF92EF92FF920F931F93FC01E480F5806D
:1016D00006811781D1808081823048F480E090E0DB
:1016E000A0E1B0E0E82AF92A0A2B1B2BA5C0843020
:1016F00009F49FC0823021F4EE24FF24870105C045
:10170000E114F1040105110519F4E0E0F0E096C0E0
:10171000628173819FEF623879070CF05BC022E829
:101720003FEF261B370B2A3131052CF020E030E04B
:1017300040E050E02AC0B801A701022E04C076950F
:101740006795579547950A94D2F781E090E0A0E01D
:10175000B0E004C0880F991FAA1FBB1F2A95D2F7BB
:101760000197A109B1098E219F21A023B1230097E0
:10177000A105B10521F081E090E0A0E0B0E09A0180
:10178000AB01282B392B4A2B5B2BDA01C9018F7750
:101790009070A070B07080349105A105B10539F446
:1017A00027FF09C0205C3F4F4F4F5F4F04C0215CB3
:1017B0003F4F4F4F5F4FE0E0F0E02030A0E03A07AE
:1017C000A0E04A07A0E45A0710F0E1E0F0E0790158
:1017D0008A0127C06038710564F5FB01E158FF4FAD
:1017E000D801C7018F779070A070B07080349105D8
:1017F000A105B10539F4E7FE0DC080E490E0A0E05A
:10180000B0E004C08FE390E0A0E0B0E0E80EF91E85
:101810000A1F1B1F17FF05C016950795F794E7943D
:10182000319687E016950795F794E7948A95D1F756
:1018300005C0EE24FF248701EFEFF0E06E2F6795DF
:1018400066276795902F9F77D794DD24D7948E2FA6
:101850008695492F462B582F5D29B701CA011F9144
:101860000F91FF90EF90DF900895FC01DB01408124
:1018700051812281622F6F7770E0221F2227221F61
:101880009381892F880F822B282F30E0991F992769
:10189000991F11969C93119721153105A9F54115B2
:1018A00051056105710511F482E037C082E89FEFB0
:1018B00013969C938E9312979A01AB0167E0220FC7
:1018C000331F441F551F6A95D1F783E08C930DC0D9
:1018D000220F331F441F551F12968D919C91139711
:1018E000019713969C938E931297203080E03807CF
:1018F00080E0480780E4580758F314962D933D93F1
:101900004D935C93179708952F3F310579F4411556
:1019100051056105710519F484E08C93089564FF05
:1019200003C081E08C9312C01C9210C02F5730402E
:1019300013963C932E93129783E08C9387E0440F89
:10194000551F661F771F8A95D1F7706414964D93C3
:101950005D936D937C93179708951F93DC01FB01B2
:101960009C91923008F447C08081823008F443C0D3
:10197000943051F411961C91843099F58181682F2F
:1019800070E0611B71093FC0843021F0923031F466
:101990008230B9F18181882389F12DC011961C9183
:1019A00011978230F1F081811817D9F412962D9198
:1019B0003C911397828193818217930794F02817A3
:1019C0003907BCF014968D919D910D90BC91A02D7E
:1019D0002481358146815781281739074A075B07DB
:1019E00018F4112341F00AC082179307A407B50722
:1019F00040F4112319F061E070E005C06FEF7FEF54
:101A000002C060E070E0CB011F9108952F923F92D9
:101A10004F925F926F927F928F929F92AF92BF92FE
:101A2000CF92DF92EF92FF920F931F93CF93DF93AA
:101A3000CDB7DEB7CA1BDB0B0FB6F894DEBF0FBE07
:101A4000CDBF09942A88398848885F846E847D8454
:101A50008C849B84AA84B984C884DF80EE80FD8056
:101A60000C811B81AA81B981CE0FD11D0FB6F894CC
:101A7000DEBF0FBECDBFED010895AEE0B0E0E3E400
:101A8000FDE00C94140D0D891E8986E08C831A8369
:101A900009838FEF9FE79E838D839E01275E3F4FD3
:101AA000CE0101966F89788DA9010E947B0D2F814F
:101AB0003885020F131FF80110822E96E4E00C9473
:101AC000300DAEE0B0E0E7E6FDE00C94160D85E0E9
:101AD0008C838B899C899A8389839E01295E3F4FE1
:101AE000CE0101966D897E89A9010E94DC102E9697
:101AF000E2E00C94320DABE0B0E0E1E8FDE00C94E4
:101B0000060D3C012B015A01FC01178216828381CC
:101B100081FD03C06FEF7FEFC6C19AE0892E1E01E1
:101B20000894211C311CF3012381F20123FD8591CE
:101B300023FF81912F01882309F4B2C1853239F442
:101B400023FD859123FF81912F01853229F490E0B7
:101B5000B3010E947212E7CF982FFF24EE2499243C
:101B6000FFE1FF15D0F09B3269F09C3228F49032EF
:101B700059F0933291F40EC09D3249F0903369F4DC
:101B800041E024C052E0F52A84E0F82A28C098E019
:101B9000F92A25C0E0E1FE2A22C0F7FC29C0892FDE
:101BA00080538A3070F4F6FE05C0989C902C112466
:101BB000980E15C0E89CE02C1124E80EF0E2FF2AF4
:101BC0000EC09E3229F4F6FC6BC140E4F42A07C033
:101BD0009C3619F450E8F52A02C0983649F4F2010F
:101BE00023FD959123FF91912F01992309F0B8CFFF
:101BF000892F8554833018F08052833038F444E0C4
:101C000050E0A40EB51E5FE359830FC0933631F048
:101C1000933779F0933509F056C020C0F5018081E3
:101C2000898342E050E0A40EB51E610101E010E09E
:101C300012C0F501C080D180F6FC03C06FEF7FEFCA
:101C400002C0692D70E042E050E0A40EB51EC6014E
:101C50000E9425128C015FE7F52214C0F501C080B7
:101C6000D180F6FC03C06FEF7FEF02C0692D70E0FA
:101C700042E050E0A40EB51EC6010E941A128C016B
:101C800050E8F52AF3FE07C01AC080E290E0B301E5
:101C90000E947212EA948E2D90E008171907A8F39B
:101CA0000EC0F601F7FC8591F7FE81916F0190E07F
:101CB000B3010E947212E110EA9401501040011524
:101CC000110579F7EAC0943611F0993669F5F7FEF7
:101CD00008C0F501208131814281538184E090E088
:101CE0000AC0F501808191819C01442737FD409510
:101CF000542F82E090E0A80EB91E9FE6F92257FF0C
:101D000009C050954095309521953F4F4F4F5F4FFB
:101D1000E0E8FE2ACA01B901A1012AE030E00E94F0
:101D2000B812D82ED21840C0953729F41F2D1F7E27
:101D30002AE030E01DC01F2D197F9F3661F09037DB
:101D400020F4983509F0ACC00FC0903739F09837BF
:101D500009F0A6C004C028E030E00AC0106114FDFC
:101D6000146020E130E004C014FD166020E132E090
:101D700017FF08C0F501608171818281938144E081
:101D800050E008C0F50180819181BC0180E090E0C5
:101D900042E050E0A40EB51EA1010E94B812D82E58
:101DA000D2188FE7F82EF122F6FE0BC05EEFF52277
:101DB000D91438F4F4FE07C0F2FC05C08FEEF82207
:101DC00002C01D2D01C0192DF4FE0DC0FE01ED0D48
:101DD000F11D8081803319F499EEF92208C01F5F4C
:101DE000F2FE05C003C08F2D867809F01F5F0F2D0E
:101DF000F3FC14C0F0FE0FC01E1510F09D2C0BC09C
:101E00009D2C9E0C911A1E2D06C080E290E0B3011D
:101E10000E9472121F5F1E15C0F304C01E1510F43D
:101E2000E11A01C0EE2404FF0FC080E390E0B3018B
:101E30000E94721202FF1DC001FD03C088E790E0FE
:101E40000EC088E590E00BC0802F867891F001FFEE
:101E500002C08BE201C080E2F7FC8DE290E0B301AA
:101E60000E94721206C080E390E0B3010E947212D9
:101E70009A94D914C0F3DA94F101ED0DF11D80812B
:101E800090E0B3010E947212DD20A9F706C080E243
:101E900090E0B3010E947212EA94EE20C1F743CEA3
:101EA000F30166817781CB012B96E2E10C94220D40
:101EB000FC0120FD08C023FD05C022FF02C0738382
:101EC0006283518340830895EF92FF920F931F9393
:101ED00044FF02C033E011C046FF02C034E00DC031
:101EE000DB01FC01AA0FBB1FEE1FFF1F1094D1F7EF
:101EF0006A0F7B1F8E1F9F1F31E0660F771F881FA1
:101F0000991F3150D1F77B018C01E20EF11C011DAC
:101F1000111DA8019701B701CA011F910F91FF90F0
:101F2000EF9008950F931F93CF93DF938C01C80117
:101F30000E943012EC0197FD08C00E940712892B05
:101F4000B1F7CE01B8010E949E12CE01DF91CF9170
:101F50001F910F910895A0E0B0E0E1EBFFE00C9439
:101F60000E0DEC01C62E5A01122F0E943012AC0148
:101F70008B3219F08D3251F41068CA9409F46DC097
:101F8000CE010E943012AC0197FD67C06DEFD62ED6
:101F9000D1228D2D807301F54033F1F4CA9409F4F8
:101FA00047C0CE010E943012AC0197FD41C082E0D3
:101FB000D82A483711F0483559F480E4D82ACA9411
:101FC000B9F1CE010E943012AC0199232CF430C03B
:101FD000D6FC02C080E1D82AEE24FF248701242FFA
:101FE0002053283088F0D4FC09C02A3068F0D6FE8F
:101FF00005C02F7D822F8151863028F0CA01BE0195
:102000000E949E1212C02750C801B7014D2D0E9498
:10201000640F7B018C0182E0D82ACA9461F0CE0162
:102020000E943012AC0197FFDACFD1FC04C015C07A
:10203000EE24FF248701D7FE08C010950095F09488
:10204000E094E11CF11C011D111DC501B801A7019F
:102050002D2D0E94580F81E001C080E0CDB7DEB782
:10206000EAE00C942A0DA0E2B0E0E9E3F0E10C9480
:102070000A0D6C01A62E8A017901FE01319680E2DB
:10208000DF011D928A95E9F770E030E060E040E002
:1020900050E04F01A1E0B0E0F6018381F70183FD3C
:1020A000259183FF21917F01222309F47EC02E35E3
:1020B00019F44115510569F1872F90E084179507B0
:1020C00044F42D3551F12D3221F4332329F431E03C
:1020D00021C0332309F4622F322F832F86958695F2
:1020E0008695F401E80FF11D832F87703D0102C032
:1020F000660C771C8A95E2F7208126292083361703
:1021000011F430E007C0361710F43F5FE6CF3150CE
:10211000E4CF71E04F5F5F4FBFCF332319F08E8163
:1021200080628E83772359F0FE0131969E012F5DE8
:102130003F4F808180958193E217F307D1F7BB244D
:10214000B3944E010894811C911CC6010E94301268
:10215000AC0197FD22C0869586958695F401E80F1F
:10216000F11D808190E09A012770307002C0959532
:1021700087952A95E2F780FD05C0CA01B6010E9445
:102180009E120BC00115110519F0D8014D938D0158
:10219000AA94BB24AA20C9F602C0BB2031F40115C1
:1021A000110529F0F801108202C0EE24FF24C701B6
:1021B000A096EEE00C94260DA0E0B0E0E2EEF0E197
:1021C0000C940A0D5C016B013A01FC011782168226
:1021D0008824EAC0812F90E00E940712892B21F009
:1021E000C5010E94920FE0C0153249F4F601F3FCDC
:1021F0006591F3FE61916F01653269F415E2C501E5
:102200000E94301297FDDCC0181709F4CDC0B5014B
:102210000E949E12DAC06A3219F0162F00E006C042
:10222000F3FC1591F3FE11916F0101E099240FC0A9
:102230000260692D70E080E090E040E20E94640F4F
:10224000962EF601F3FC1591F3FE11916F01212FEB
:1022500020532A3068F301FD03C099249A9403C0E7
:10226000992009F4B2C0183621F01C3699F4F60111
:102270000BC0F601F3FC6591F3FE6191683619F02D
:102280006F01162F07C008600460F3FC1591F3FE80
:1022900011916F01112309F498C088E690E0612F35
:1022A00070E00E940F12892B09F48FC0802F00FF6D
:1022B00003C0EE24FF2407C0F301E080F18022E098
:1022C00030E0620E731E1E3651F4F50146815781CF
:1022D00060E070E0C701202F0E94580F65C01336E0
:1022E00091F481FD02C099249394C5010E9430129B
:1022F00097FD66C0E114F10419F0F70181937F01A5
:102300009A9499F74FC01B3559F4C501692DA7015F
:1023100096010E9433106C01009709F043C03DC044
:10232000C5010E94920F97FD4BC01F3659F110371F
:1023300028F4143629F1193639F527C0133719F066
:10234000153711F51DC0C5010E943012EC0197FD33
:1023500011C00E940712892B29F0CE01B5010E94FD
:102360009E1208C0E114F10419F0F701C1937F0136
:102370009A9449F7E114F104A9F0F701108212C010
:10238000006203C0006101C00064C501692DA7019E
:10239000202F0E94AB0F882329F4F50183818073DD
:1023A00079F413C000FF8394F501F380F601F3FC88
:1023B0001591F3FE11916F01112309F00BCF05C0A8
:1023C000882019F42FEF3FEF02C0282D30E0C9011B
:1023D000CDB7DEB7EEE00C94260DF999FECF92BD95
:1023E00081BDF89A992780B50895262FF999FECFD7
:1023F00092BD81BDF89A019700B4021639F01FBA58
:1024000020BD0FB6F894FA9AF99A0FBE089591116B
:102410000DC1803219F089508550D0F70895FC0124
:102420000590061621F00020D9F7C00108953197D4
:10243000CF010895FC010590615070400110D8F75C
:10244000809590958E0F9F1F0895FC0161507040FC
:1024500001900110D8F7809590958E0F9F1F0895D9
:10246000CF93DF93EC014B8140FF1AC046FF0AC0B7
:102470004F7B4B838E819F8101969F838E838A81C0
:10248000282F2BC042FF13C0E881F9818081282FBB
:10249000332727FD30952115310529F440624B8300
:1024A0002FEF3FEF1BC03196F983E88311C0EA8517
:1024B000FB85CE0109959C0197FF0AC09B812F5F88
:1024C0003F4F11F080E201C080E1892B8B83E8CF80
:1024D0008E819F8101969F838E8330E0C901DF91B9
:1024E000CF9108950F931F93CF93DF938C01EB014E
:1024F0008B8181FF1BC082FF0DC02E813F818C81AB
:102500009D812817390764F4E881F9810193F983E3
:10251000E88306C0E885F985802F0995892B31F479
:102520008E819F8101969F838E8302C00FEF1FEFE4
:10253000C801DF91CF911F910F9108959C01FB017C
:10254000838180FF11C086FD0FC09FEF2F3F3907A9
:1025500059F0228380648F7D8383868197810197E0
:102560009783868330E002C02FEF3FEFC9010895C3
:10257000FA01AA27283051F1203181F1E8946F93B4
:102580006E7F6E5F7F4F8F4F9F4FAF4FB1E03ED05A
:10259000B4E03CD0670F781F891F9A1FA11D680FF8
:1025A000791F8A1F911DA11D6A0F711D811D911D2B
:1025B000A11D20D009F468943F912AE0269F1124A0
:1025C0003019305D3193DEF6CF010895462F477004
:1025D000405D4193B3E00FD0C9F7F6CF462F4F705F
:1025E000405D4A3318F0495D31FD4052419302D0BD
:1025F000A9F7EACFB4E0A695979587957795679563
:10260000BA95C9F700976105710508959B01AC0162
:102610000A2E06945795479537952795BA95C9F789
:10262000620F731F841F951FA01D08959927882787
:062630000895F894FFCFAD
:10263600204D61747420426173656865617274002F
:102646002046696E616C2050726F6A656374200063
:102656004D41583D002532640020004F564552201A
:1026660034205345434F4E44532020002534640004
:10267600256325632563256300253163002E0063EA
:102686006D2F73006D733D202020202020202020F8
:1026960000520025316400256325632563256325E3
:1026A60063002D000000000000000000000102028F
:1026B60003030303040404040404040405050505D4
:1026C60005050505050505050505050506060606B0
:1026D6000606060606060606060606060606060694
:1026E6000606060606060606060606060707070780
:1026F6000707070707070707070707070707070764
:102706000707070707070707070707070707070753
:102716000707070707070707070707070707070743
:10272600070707070707070707070707080808082F
:102736000808080808080808080808080808080813
:102746000808080808080808080808080808080803
:1027560008080808080808080808080808080808F3
:1027660008080808080808080808080808080808E3
:1027760008080808080808080808080808080808D3
:1027860008080808080808080808080808080808C3
:1027960008080808080808080808080808080808B3
:0C27A600080808080808080808080808C7
:00000001FF
